{
  "contractName": "StandardToken",
  "abi": [
    {
      "constant": true,
      "inputs": [],
      "name": "totalSupply",
      "outputs": [
        {
          "name": "",
          "type": "uint256"
        }
      ],
      "payable": false,
      "stateMutability": "view",
      "type": "function"
    },
    {
      "constant": true,
      "inputs": [
        {
          "name": "_owner",
          "type": "address"
        }
      ],
      "name": "balanceOf",
      "outputs": [
        {
          "name": "balance",
          "type": "uint256"
        }
      ],
      "payable": false,
      "stateMutability": "view",
      "type": "function"
    },
    {
      "constant": false,
      "inputs": [
        {
          "name": "_to",
          "type": "address"
        },
        {
          "name": "_value",
          "type": "uint256"
        }
      ],
      "name": "transfer",
      "outputs": [
        {
          "name": "",
          "type": "bool"
        }
      ],
      "payable": false,
      "stateMutability": "nonpayable",
      "type": "function"
    },
    {
      "anonymous": false,
      "inputs": [
        {
          "indexed": true,
          "name": "owner",
          "type": "address"
        },
        {
          "indexed": true,
          "name": "spender",
          "type": "address"
        },
        {
          "indexed": false,
          "name": "value",
          "type": "uint256"
        }
      ],
      "name": "Approval",
      "type": "event"
    },
    {
      "anonymous": false,
      "inputs": [
        {
          "indexed": true,
          "name": "from",
          "type": "address"
        },
        {
          "indexed": true,
          "name": "to",
          "type": "address"
        },
        {
          "indexed": false,
          "name": "value",
          "type": "uint256"
        }
      ],
      "name": "Transfer",
      "type": "event"
    },
    {
      "constant": false,
      "inputs": [
        {
          "name": "_from",
          "type": "address"
        },
        {
          "name": "_to",
          "type": "address"
        },
        {
          "name": "_value",
          "type": "uint256"
        }
      ],
      "name": "transferFrom",
      "outputs": [
        {
          "name": "",
          "type": "bool"
        }
      ],
      "payable": false,
      "stateMutability": "nonpayable",
      "type": "function"
    },
    {
      "constant": false,
      "inputs": [
        {
          "name": "_spender",
          "type": "address"
        },
        {
          "name": "_value",
          "type": "uint256"
        }
      ],
      "name": "approve",
      "outputs": [
        {
          "name": "",
          "type": "bool"
        }
      ],
      "payable": false,
      "stateMutability": "nonpayable",
      "type": "function"
    },
    {
      "constant": true,
      "inputs": [
        {
          "name": "_owner",
          "type": "address"
        },
        {
          "name": "_spender",
          "type": "address"
        }
      ],
      "name": "allowance",
      "outputs": [
        {
          "name": "",
          "type": "uint256"
        }
      ],
      "payable": false,
      "stateMutability": "view",
      "type": "function"
    },
    {
      "constant": false,
      "inputs": [
        {
          "name": "_spender",
          "type": "address"
        },
        {
          "name": "_addedValue",
          "type": "uint256"
        }
      ],
      "name": "increaseApproval",
      "outputs": [
        {
          "name": "",
          "type": "bool"
        }
      ],
      "payable": false,
      "stateMutability": "nonpayable",
      "type": "function"
    },
    {
      "constant": false,
      "inputs": [
        {
          "name": "_spender",
          "type": "address"
        },
        {
          "name": "_subtractedValue",
          "type": "uint256"
        }
      ],
      "name": "decreaseApproval",
      "outputs": [
        {
          "name": "",
          "type": "bool"
        }
      ],
      "payable": false,
      "stateMutability": "nonpayable",
      "type": "function"
    },
    {
      "constant": false,
      "inputs": [
        {
          "name": "_spender",
          "type": "address"
        },
        {
          "name": "_value",
          "type": "uint256"
        },
        {
          "name": "_extraData",
          "type": "bytes"
        }
      ],
      "name": "approveAndCall",
      "outputs": [
        {
          "name": "",
          "type": "bool"
        }
      ],
      "payable": false,
      "stateMutability": "nonpayable",
      "type": "function"
    },
    {
      "constant": false,
      "inputs": [
        {
          "name": "_receiver",
          "type": "address"
        },
        {
          "name": "_value",
          "type": "uint256"
        },
        {
          "name": "_extraData",
          "type": "bytes"
        }
      ],
      "name": "transferAndCall",
      "outputs": [
        {
          "name": "",
          "type": "bool"
        }
      ],
      "payable": false,
      "stateMutability": "nonpayable",
      "type": "function"
    }
  ],
  "bytecode": "0x60806040526002805460ff1916905534801561001a57600080fd5b50610a6b8061002a6000396000f3006080604052600436106100a35763ffffffff7c0100000000000000000000000000000000000000000000000000000000600035041663095ea7b381146100a857806318160ddd146100e057806323b872dd146101075780634000aea014610131578063661884631461019a57806370a08231146101be578063a9059cbb146101df578063cae9ca5114610203578063d73dd6231461026c578063dd62ed3e14610290575b600080fd5b3480156100b457600080fd5b506100cc600160a060020a03600435166024356102b7565b604080519115158252519081900360200190f35b3480156100ec57600080fd5b506100f5610366565b60408051918252519081900360200190f35b34801561011357600080fd5b506100cc600160a060020a036004358116906024351660443561036c565b34801561013d57600080fd5b50604080516020600460443581810135601f81018490048402850184019095528484526100cc948235600160a060020a03169460248035953695946064949201919081908401838280828437509497506104f19650505050505050565b3480156101a657600080fd5b506100cc600160a060020a036004351660243561061b565b3480156101ca57600080fd5b506100f5600160a060020a0360043516610717565b3480156101eb57600080fd5b506100cc600160a060020a0360043516602435610732565b34801561020f57600080fd5b50604080516020600460443581810135601f81018490048402850184019095528484526100cc948235600160a060020a03169460248035953695946064949201919081908401838280828437509497506108259650505050505050565b34801561027857600080fd5b506100cc600160a060020a036004351660243561093a565b34801561029c57600080fd5b506100f5600160a060020a03600435811690602435166109dc565b60006002366044146102c557fe5b8215806102f35750336000908152600360209081526040808320600160a060020a0388168452909152902054155b15156102fe57600080fd5b336000818152600360209081526040808320600160a060020a03891680855290835292819020879055805187815290519293927f8c5be1e5ebec7d5bd14f71427d1e84f3dd0314c0f7b2291e5b200ac8c7c3b925929181900390910190a35060019392505050565b60015490565b60025460009060ff161561037f57600080fd5b60033660641461038b57fe5b600160a060020a03841615156103a057600080fd5b600160a060020a0385166000908152602081905260409020548311156103c557600080fd5b600160a060020a03851660009081526003602090815260408083203384529091529020548311156103f557600080fd5b600160a060020a0385166000908152602081905260409020546104189084610a17565b600160a060020a0380871660009081526020819052604080822093909355908616815220546104479084610a29565b600160a060020a038086166000908152602081815260408083209490945591881681526003825282812033825290915220546104839084610a17565b600160a060020a03808716600081815260036020908152604080832033845282529182902094909455805187815290519288169391927fddf252ad1be2c89b69c2b068fc378daa952ba7f163c4a11628f55a4df523b3ef929181900390910190a3600191505b509392505050565b6000836104fe8185610732565b156104e9576040517f141469ce0000000000000000000000000000000000000000000000000000000081523360048201818152602483018790523060448401819052608060648501908152875160848601528751600160a060020a0387169563141469ce95948b94938b939192909160a490910190602085019080838360005b8381101561059657818101518382015260200161057e565b50505050905090810190601f1680156105c35780820380516001836020036101000a031916815260200191505b5095505050505050602060405180830381600087803b1580156105e557600080fd5b505af11580156105f9573d6000803e3d6000fd5b505050506040513d602081101561060f57600080fd5b50600192506104e99050565b60008060023660441461062a57fe5b336000908152600360209081526040808320600160a060020a038916845290915290205491508184111561068157336000908152600360209081526040808320600160a060020a03891684529091528120556106b0565b61068b8285610a17565b336000908152600360209081526040808320600160a060020a038a1684529091529020555b336000818152600360209081526040808320600160a060020a038a168085529083529281902054815190815290519293927f8c5be1e5ebec7d5bd14f71427d1e84f3dd0314c0f7b2291e5b200ac8c7c3b925929181900390910190a3506001949350505050565b600160a060020a031660009081526020819052604090205490565b60025460009060ff161561074557600080fd5b60023660441461075157fe5b600160a060020a038416151561076657600080fd5b3360009081526020819052604090205483111561078257600080fd5b3360009081526020819052604090205461079c9084610a17565b3360009081526020819052604080822092909255600160a060020a038616815220546107c89084610a29565b600160a060020a038516600081815260208181526040918290209390935580518681529051919233927fddf252ad1be2c89b69c2b068fc378daa952ba7f163c4a11628f55a4df523b3ef9281900390910190a35060019392505050565b60008361083281856102b7565b156104e9576040517f8f4ffcb10000000000000000000000000000000000000000000000000000000081523360048201818152602483018790523060448401819052608060648501908152875160848601528751600160a060020a03871695638f4ffcb195948b94938b939192909160a490910190602085019080838360005b838110156108ca5781810151838201526020016108b2565b50505050905090810190601f1680156108f75780820380516001836020036101000a031916815260200191505b5095505050505050600060405180830381600087803b15801561091957600080fd5b505af115801561092d573d6000803e3d6000fd5b50505050600191506104e9565b600060023660441461094857fe5b336000908152600360209081526040808320600160a060020a03881684529091529020546109769084610a29565b336000818152600360209081526040808320600160a060020a038a168085529083529281902085905580519485525191937f8c5be1e5ebec7d5bd14f71427d1e84f3dd0314c0f7b2291e5b200ac8c7c3b925929081900390910190a35060019392505050565b60006002366044146109ea57fe5b5050600160a060020a03918216600090815260036020908152604080832093909416825291909152205490565b600082821115610a2357fe5b50900390565b600082820183811015610a3857fe5b93925050505600a165627a7a7230582032624c0b4b3e30a10224ac502b09235e2b384f167c5a803e88aac3e1d0c94a030029",
  "source": "pragma solidity ^0.4.23;\n\n/**\n* CRAIDER (RAID) ERC20 Token Smart Contract implementation.\n*\n* Copyright © 2018 by Craider Technologies.\n*\n* Developed By: NewCryptoBlock.\n*\n* Licensed under the Apache License, Version 2.0 (the \"License\").\n* You may not use this file except in compliance with the License.\n*\n* Unless required by applicable law or agreed to in writing, software\n* distributed under the License is distributed on an \"AS IS\" BASIS,\n* WITHOUT WARRANTIES OR CONDITIONS OF ANY KIND (express or implied).\n*/\n\nimport \"./BasicToken.sol\";\nimport \"./ERC20.sol\";\n\n/**\n * @title Standard ERC20 token\n *\n * @dev Implementation of the basic standard token.\n * @dev https://github.com/ethereum/EIPs/issues/20\n * @dev Based on code by FirstBlood: https://github.com/Firstbloodio/token/blob/master/smart_contract/FirstBloodToken.sol\n */\ncontract StandardToken is ERC20, BasicToken {\n\n  mapping (address => mapping (address => uint256)) internal allowed;\n\n\n  /**\n   * @dev Transfer tokens from one address to another\n   * @param _from address The address which you want to send tokens from\n   * @param _to address The address which you want to transfer to\n   * @param _value uint256 the amount of tokens to be transferred\n   */\n  function transferFrom(address _from, address _to, uint256 _value) whenNotFrozen onlyPayloadSize(3) public returns (bool) {\n    require(_to != address(0));\n    require(_value <= balances[_from]);\n    require(_value <= allowed[_from][msg.sender]);\n\n    balances[_from] = sub(balances[_from], _value);\n    balances[_to] = add(balances[_to], _value);\n    allowed[_from][msg.sender] = sub(allowed[_from][msg.sender], _value);\n    emit Transfer(_from, _to, _value);\n    return true;\n  }\n\n  /**\n   * @dev Approve the passed address to spend the specified amount of tokens on behalf of msg.sender.\n   *\n   * Beware that changing an allowance with this method brings the risk that someone may use both the old\n   * and the new allowance by unfortunate transaction ordering. One possible solution to mitigate this\n   * race condition is to first reduce the spender's allowance to 0 and set the desired value afterwards:\n   * https://github.com/ethereum/EIPs/issues/20#issuecomment-263524729\n   * @param _spender The address which will spend the funds.\n   * @param _value The amount of tokens to be spent.\n   */\n  function approve(address _spender, uint256 _value) onlyPayloadSize(2) public returns (bool) {\n    require(_value == 0 || allowed[msg.sender][_spender] == 0);\n    allowed[msg.sender][_spender] = _value;\n    emit Approval(msg.sender, _spender, _value);\n    return true;\n  }\n\n  /**\n   * @dev Function to check the amount of tokens that an owner allowed to a spender.\n   * @param _owner address The address which owns the funds.\n   * @param _spender address The address which will spend the funds.\n   * @return A uint256 specifying the amount of tokens still available for the spender.\n   */\n  function allowance(address _owner, address _spender) onlyPayloadSize(2) public view returns (uint256) {\n    return allowed[_owner][_spender];\n  }\n\n  /**\n   * @dev Increase the amount of tokens that an owner allowed to a spender.\n   *\n   * approve should be called when allowed[_spender] == 0. To increment\n   * allowed value is better to use this function to avoid 2 calls (and wait until\n   * the first transaction is mined)\n   * From MonolithDAO Token.sol\n   * @param _spender The address which will spend the funds.\n   * @param _addedValue The amount of tokens to increase the allowance by.\n   */\n  function increaseApproval(address _spender, uint _addedValue) onlyPayloadSize(2) public returns (bool) {\n    allowed[msg.sender][_spender] = add(allowed[msg.sender][_spender], _addedValue);\n    emit Approval(msg.sender, _spender, allowed[msg.sender][_spender]);\n    return true;\n  }\n\n  /**\n   * @dev Decrease the amount of tokens that an owner allowed to a spender.\n   *\n   * approve should be called when allowed[_spender] == 0. To decrement\n   * allowed value is better to use this function to avoid 2 calls (and wait until\n   * the first transaction is mined)\n   * From MonolithDAO Token.sol\n   * @param _spender The address which will spend the funds.\n   * @param _subtractedValue The amount of tokens to decrease the allowance by.\n   */\n  function decreaseApproval(address _spender, uint _subtractedValue) onlyPayloadSize(2) public returns (bool) {\n    uint oldValue = allowed[msg.sender][_spender];\n    if (_subtractedValue > oldValue) {\n      allowed[msg.sender][_spender] = 0;\n    } else {\n      allowed[msg.sender][_spender] = sub(oldValue, _subtractedValue);\n    }\n    emit Approval(msg.sender, _spender, allowed[msg.sender][_spender]);\n    return true;\n  }\n\n  /**\n    * Set allowance for other address and notify\n    *\n    * Allows `_spender` to spend no more than `_value` tokens in your behalf, and then ping the contract about it\n    *\n    * @param _spender The address authorized to spend\n    * @param _value the max amount they can spend\n    * @param _extraData some extra information to send to the approved contract\n    */\n  function approveAndCall(address _spender, uint256 _value, bytes _extraData) public returns (bool) {\n    TokenRecipient spender = TokenRecipient(_spender);\n    if (approve(_spender, _value)) {\n      spender.receiveApproval(msg.sender, _value, this, _extraData);\n      return true;\n    }\n  }\n\n  /**\n    * Transfer and notify\n    *\n    * Transfer to `_receiver` `_value` tokens, and then ping the contract about it\n    *\n    * @param _receiver The address to receive tokens\n    * @param _value the amount they will receive\n    * @param _extraData some extra information to send to the transfer contract\n    */\n  function transferAndCall(address _receiver, uint _value, bytes _extraData) public returns (bool) {\n    TokenRecipient receiver = TokenRecipient(_receiver);\n    if (transfer(_receiver, _value)) {\n      receiver.tokenFallback(msg.sender, _value, this, _extraData);\n      return true;\n    }\n  }\n}\n\ninterface TokenRecipient {\n  function receiveApproval(address _from, uint256 _value, address _token, bytes _extraData) external;\n  function tokenFallback(address _from, uint256 _value, address _token, bytes _extraData) external returns (bool);\n}\n",
  "sourcePath": "/Users/dimitarjelev/Projects/craider/contracts/lib/token/StandardToken.sol",
  "compiler": {
    "name": "solc",
    "version": "0.4.24+commit.e67f0147.Emscripten.clang"
  },
  "schemaVersion": "2.0.1",
  "updatedAt": "2018-07-24T13:08:59.918Z"
}